:1000000012C02CC02BC02AC029C028C027C026C0BF
:1000100025C024C023C022C021C020C01FC01EC0D4
:100020001DC01CC01BC011241FBECFE5D4E0DEBF25
:10003000CDBF10E0A0E6B0E0E8EBF1E002C0059033
:100040000D92A036B107D9F710E0A0E6B0E001C0EC
:100050001D92A036B107E1F74AD0ACC0D1CF89E1FB
:1000600089B910BC1BB88AB188618AB90895DF9339
:10007000CF9300D0CDB7DEB714BA11BA54B321E094
:1000800030E0F90102C0EE0FFF1F8A95E2F75E2B08
:1000900002C0220F331F6A95E2F7522B54BB442350
:1000A00009F48B9A8A9A20E030E089819A8101963E
:1000B0009A8389832F5F3F4FFAEE20363F07A9F7D7
:1000C0008A9820E030E089819A8101969A83898319
:1000D0002F5F3F4F8AEE20363807A9F70F900F9019
:1000E000CF91DF9108955D9BFECF8CB9089512BA30
:1000F00015BA89E189B910BC1BB88AB188618AB97F
:100100005F9BFECF8CB15D9BFECF8CB95D9BFECF1C
:100110008CB98833B9F1893390F4843359F185333C
:1001200048F4823311F1833318F58823F1F18133D8
:1001300039F719C0863311F1873310F51DC08434A7
:1001400059F1853438F4823419F1833418F5813447
:10015000B9F61CC0863429F1863408F1873419F1C8
:10016000883471F622C083E001C082E065E00CC0F3
:1001700081E0FCCF80E0FACF83E005C082E003C0DD
:1001800081E001C080E064E041E012C083E005C08E
:1001900082E003C081E001C080E065E008C083E048
:1001A00005C082E003C081E001C080E064E040E07F
:0801B0005EDFA6CFF894FFCF3B
:00000001FF
